:40000000020C29008F828E83E0540100000070F82278FFE4F6D8FD020CE6EC4D6011E8497017ED33EC3304600DE4FCFFFEFD22E933E8330470F80202E31202AE580460096F
:40004000E4CC248150062850090202ED2840030202EAC0E0EB4A7044B98006D0E0FB0202D9EF4E701CBD8008EBFFEAFEE9FD80EBE98DF0A4FEE5F0020103E9CDF9EAFEEB24
:40008000FFEF89F0A4FCE5F0CE89F0A42EFFE435F0CD89F0A42DFEE435F08067EF4E7005BD80D780C3EF8BF0A4ACF0EE8BF0A42CFCE435F0F8EF8AF0A42CE5F038FCE433FC
:4000C000CB8DF0A42CFCE5F03BF8EE8AF0A42CFCE5F038F8E433CF89F0A42CFCE5F038CF3400CE89F0A42FFFE5F03EFEE433C98DF0A42EFEE5F039CD8AF0A42FFFE5F03EDF
:40010000FEE43DFD33D0E0FB50070BBB000F0202EDEC2CFCEF33FFEE33FEED33FD0202C50202EDEC5D046005E8590470030202E31202AE580460F6EC4860F2EC7004FDFED7
:40014000FF22C860DB2481C85009C398600250060202EA9850CAF582E9294B4A7005AB820202D975F0007C1A7880C3EF9BEE9AED99400DC3EF9BFFEE9AFEED99FDE842F03B
:40018000DC23ACF0D0E0FFD0E0FED0E0FDAB8220E7101BEB60BAEC2CFCEF33FFEE33FEED33FD0202C5E803F830E705C0F075F000EF2FFFEE33FEED33FD40B830E7C280AA94
:4001C00074F8CC6480CCC86480C8F58204604FC3EB9FF5F0EA9E42F0E99D42F0E89C45F0603C501DE5825FFFE582D313CB5BCBF42B5582FB50280ABA002409B90020088055
:400200001DE5825BFBE582D313CF5FCFF4C3132F5582FF50090EBE00050DBD00010CC3EB9FF5F0EA9E42F0E99D42F0E89C45F06007CC4820E701B3EC2275F020800E75F0B1
:4002400010800575F0087D007E007F003392D530D50312047EEC334010EF33FFEE33FEED33FDEC33FCD5F0ED22E5F0247EA2D513CC92E7CDCEFF22EDD2E7CD33EC3392D5E3
:4002800024814006E4FFFEFDFC22FCE4CFCECDCC24E0501174FF80EDC3CC13CCCD13CDCE13CECF13CF0470F030D5DE02047EE9D2E7C933E833F892D5EDD2E7CD33EC33FCDD
:4002C0005002B2D522EC30E7100FBF000C0EBE00080DBD00040BEB6014A2D5EB13FCED92E7FD2274FFFCFDFEFF22E480F8A2D574FF13FC7D80E480EFBB010689828A83E02A
:40030000225002E722BBFE02E32289828A83E49322BB010689828A83F0225002F722BBFE01F322C5F0F8A3E028F0C5F0F8E582158270021583E038F022EF2BFFEE3AFEED56
:4003400039FDEC38FC22C3EF9BFFEE9AFEED99FDEC98FC22E88FF0A4CC8BF0A42CFCE98EF0A42CFC8AF0EDA42CFCEA8EF0A4CDA8F08BF0A42DCC3825F0FDE98FF0A42CCDB2
:4003800035F0FCEB8EF0A4FEA9F0EB8FF0A4CFC5F02ECD39FEE43CFCEAA42DCE35F0FDE43CFC2275F008758200EF2FFFEE33FECD33CDCC33CCC58233C5829BED9AEC99E52A
:4003C0008298400CF582EE9BFEED9AFDEC99FC0FD5F0D6E4CEFBE4CDFAE4CCF9A88222B800C1B90059BA002DEC8BF084CFCECDFCE5F0CBF97818EF2FFFEE33FEED33FDEC6C
:4004000033FCEB33FB10D703994004EB99FB0FD8E5E4F9FA227818EF2FFFEE33FEED33FDEC33FCC933C910D7059BE99A4007EC9BFCE99AF90FD8E0E4C9FAE4CCFB2275F0B0
:4004400010EF2FFFEE33FEED33FDCC33CCC833C810D7079BEC9AE899400AED9BFDEC9AFCE899F80FD5F0DAE4CDFBE4CCFAE4C8F922EF4BFFEE4AFEED49FDEC48FC22C3E4C5
:400480009FFFE49EFEE49DFDE49CFC22EB9FF5F0EA9E42F0E99D42F0E89C45F022E8600FECC313FCED13FDEE13FEEF13FFD8F122E8600FEFC333FFEE33FEED33FDEC33FCB7
:4004C000D8F122BB010789828A830204FD5005E9F80205AABBFE05E9F80205B689828A830205C2BB010789828A830205155005E9F80205D2BBFE05E9F80205DE22E0FCA3E4
:40050000E0FDA3E0FEA3E0FF22E0F8A3E0F9A3E0FAA3E0FB22ECF0A3EDF0A3EEF0A3EFF022E0FBA3E0FAA3E0F922EBF0A3EAF0A3E9F022D083D082F8E493701274019370CD
:400540000DA3A393F8740193F5828883E4737402936860EFA3A3A380DFE5092582F582E5083583F583B508048582092210AF06858209F50822858209F508D2AF22EC8EF08A
:40058000A4CCC5F0CCCDF8EFA4CEC5F02DFDE43CFCE8A42EC8C5F03DFDE43CFCEFA4FFE5F028FEE43DFDE43CFC22E6FC08E6FD08E6FE08E6FF22E2FC08E2FD08E2FE08E254
:4005C000FF22E493FC740193FD740293FE740393FF22ECF608EDF608EEF608EFF622ECF208EDF208EEF208EFF222C0E0C0F0C083C082C085C084C086758600C093759300B6
:40060000C0D075D000C000C001C002C003C004C005C006C0079049D7E0FF900054EFF0900093E0FFEF5440FF7E00EF4E7003020931900054E0FFEF5401FF7E00EF4E700355
:400640000208EB900093E0FFEF120533065C45079246065C4908724A000008E6900054E0FFEF54DFFF900054EFF0900054E0FFEF540AFF7E00EF64084E600302070B900083
:4006800093E0FFEF64457075900078E0FFEFD39400402490007D1205211202F8FF9049D8EFF09049D77404F09000757401F09000937446F00208EB900076E0FFEF5402FF5D
:4006C0007E00EF4E601D900079E0FFEF440AFF900079EFF09000937460F09044C97480F00208EB9049D6E0FFEF4410FFEFF09049D97410F09049D77404F00208EB9049D7C7
:40070000E4F0900093744AF00208EB900054E0FFEF540AFF7E00EF640A4E706E900079E0FFEF44A0FF900079EFF0900076E0FFEF5402FF7E00EF4E6037900079E0FF900074
:4007400093E0FEEE5408FEEEFD7C00ED4C60047E0180027E02EE4408FEEF4EFF900079EFF09000937460F09044C97480F00208EB9049D6E0FFEF4410FFEFF09049D974109D
:40078000F09049D77404F00208EB7F001219200208EB900054E0FFEF5402FF7E00EF4E707E900078E0FF900075E0FEEEC39F502990007D120521900075E0FFE92FF9E43AE2
:4007C000FA1202F8FF9049D8EFF09049D77404F0900075E004F00208EB900076E0FFEF5402FF7E00EF4E601D900079E0FFEF440AFF900079EFF09000937460F09044C97419
:4008000080F00208EB9049D6E0FFEF4410FFEFF09049D97410F09049D77404F00208EB900076E0FFEF5402FF7E00EF4E601D900079E0FFEF449AFF900079EFF090009374DD
:4008400060F09044C97480F00208EB9049D6E0FFEF4410FFEFF09049D97410F09049D77404F0900079E0FFEF4490FF900079EFF080799049D8E0FF90007A12052190007464
:40088000E0FEE92EF9E43AFAEF120311900074E004F0900077E0FF900074E0FEEEC39F50089049D77410F08042900076E0FFEF5402FF7E00EF4E601C900079E0FFEF44096B
:4008C000FF900079EFF09000937460F09044C97480F080179049D6E0FFEF4410FFEFF09049D7E4F080057F00121920900054E0FFEF5420FF7E00EF4E604C900079E0FF908C
:400900000093E0FEEE5408FEEEFD7C00ED4C60047E0180027E02EF4EFF900079EFF09049D6E0FFEF54EFFFEFF09000937410F08015900093E0FFEF5410FF7E00EF4E700606
:400940009000937410F0D007D006D005D004D003D002D001D000D0D0D093D086D084D085D082D083D0F0D0E0327F947E017D007C00900050120515905120E0FFEF5480FFC2
:40098000EFF0905122E0FFEF54F0FF90004FEFF090004FE0FFEF440FFF905122EFF0905123E0FFEF54F0FF90004FEFF090004FE0FF905123EFF0905124E0FFEF54F0FF908B
:4009C000004FEFF090004FE0FF905124EFF0905120E0FFEF54DFFFEFF0905120E0FFEF4440FFEFF07F007E00121770905120E0FFEF4410FFEFF07F017E00121770905121E6
:400A0000E0FF90004FEFF0905120E0FFEF54EFFFEFF07F007E0012177090004FE0FFEF5408FF90004FEFF0905120E0FFEF4410FFEFF07F017E00121770905120E0FFEF5412
:400A4000EFFFEFF090004FE0FFEF70077F0A7E001217709000501204FD7BFF7AFF79FF78FF12033990005012051590004FE0FFEF60129000501204FDD3EF9400EE9400408C
:400A8000030209E4905120E0FFEF54BFFFEFF0905120E0FFEF5480FFEFF0905122E0FFEF54F0FFEFF0905123E0FFEF54F0FF90004FEFF090004FE0FFEF440FFF905123EF4B
:400AC000F0905124E0FFEF54F0FF90004FEFF090004FE0FFEF440FFF905124EFF0227B007A4079807D007C0012199A9040827450F07B087A0B79B0C003C002C0017B007ACF
:400B000041790090004D12052AD001D002D0037F047E0012173B9043007402F09040007408F09042007403F07B0C7A0179081219CF9046A1EFF07B007A4279227D087C00AE
:400B400012199A7B007A4279207D517C1212199A900047E4F07F197E007D007C009000431205159000431204FDD3EF9400EE9400404E900047E0FFEF64036044904225E033
:400B8000FFEF5401FF7E00900047E0FEEE25E0FEEE4FFFEF5403FF900047EFF07F787E007D007C001217009000431204FD7BFF7AFF79FF78FF12033990004312051580A3C9
:400BC0009000431204FDEF4E70057F0312194A7B007A4079047D007C0112199A9040047407F0904006E4F09040087448F0904004E4F09040017402F090400B7404F0904393
:400C0000A2E0FFEF4401FF9043A2EFF09043A1E0FFEF4401FF9043A1EFF09043A0E0FFEF4480FF9043A0EFF02275930078007583467582E8E04401F0009046ECE0F9904638
:400C4000FAE0FAB903225420B40012B8001AEA901FFFF07401901FFEF09046F6F0901FFEE06005901FFFE0FA9048007440F07581099076BCE4F0A3F0A3F0A3F0907010F01C
:400C8000907019F0907020F09076007410F0907604E4F0A3F0A3F0A3F09078007800087400F0A37408F0E8B8040274FFA3F0A37422F0A374BCF0A37476F0A3E4F0A3E814E4
:400CC00075F008A4F0A3B804D59070107401F0907014F07E707F18120004907010F0EA90006FF002001175081F7509FD120D72020D2D02108AE493A3F8E493A34003F6805A
:400D000001F208DFF48029E493A3F85407240CC8C333C4540F4420C8834004F456800146F6DFE4800B010204081020408090139EE47E019360BCA3FF543F30E509541FFE5C
:400D4000E493A360010ECF54C025E060A840B8E493A3FAE493A3F8E493A3C8C582C8CAC583CAF0A3C8C582C8CAC583CADFE9DEE780BE90480074F1F0120ADE90480074B1DA
:400D8000F07B007A4679E81219CFEF4405FD7B007A4679E81219DB120F8A905883740AF07B017A5079031219CFEF4402FD7B017A5079031219DB7B017A5079131219CFEFE1
:400DC0004402FD7B017A5079131219DB9043A0E04440F09043C2E04410F07B087A0B799090004DE4F0A37451F0A37402F07F087E0012173B7B087A0B799890004DE4F0A35F
:400E00007451F0A374C2F07F087E0012173B7B087A0B79A090004DE4F0A37451F0A37412F07F087E0012173B7B087A0B79A890004DE4F0A37451F0A37422F07F087E0012AD
:400E4000173B9044F47401F0904322E04408F09046ECE0C394055006904689743AF012158C7B007A4379A0C003C00290004DEBF0A3EAF0A374B0F0D002D0037F0E7E00125A
:400E8000173B9043B0E054FDF022900048EFF090004912052A90004E7402F07B007A007900C003C002C001900049120521D082D083D0E06B7008E965827003EA6583700380
:400EC000020F84900093E0FFEFB4101E9049D9E0FFEF5408FF7E00EF4E700790004EE4F0802A90004E7401F08022900093E0FFEFB4601990004EE4F09044D97480F090004B
:400F000079E0FFEF54F7FF900079EFF090004EE0FFEF70709000937445F0900075E4F090004CE0FF900078EFF090004912052190007D12052A90004DE0FF900076EFF090D5
:400F40000079E0FFEF54FDFF900079EFF0900048E0FFEF25E0FF9049D8EFF090004DE0FFEF5401FF7E00EF4E600E9049D97412F09049D77404F080069049D97401F09044DF
:400F8000C17480F090004EE0FF227F007E007D007C009000801205159076007410F09070107401F0907019E4F07B027A7879007D887C0112199C9078027401F09078037480
:400FC000A3F07B027A787904C003C002C0017BFF7A1A7924AF01AE02AD037C00EF54FFFFEE54FFFEED5400FDEC5400FCAD07AC06D001D002D00312199C7B027A7879067DED
:40100000087C7812199C7B027A7679047D107C0012199C7B027A7679067D007C0012199C9070297409F0907039740CF09070697419F0907079741AF09070147401F09070F2
:4010400018E0FFEF5401FF7E00EF4E70F1907028E0FFEF5401FF7E00EF4E70F1907038E0FFEF5401FF7E00EF4E70F1907068E0FFEF5401FF7E00EF4E70F1907078E0FFEF52
:401080005401FF7E00EF4E70F1221218A51218C01219E71219F1D2AF9044F474FDF01219B77F001216181219C3121259900046EEF0A3EFF01219F1900046E0FEA3E0FFEE8B
:4010C000FF7E00EF54FFFF900044EFF0900046E0FEA3E0FFEF54FFFF900045EFF07B017A00794490004C7402F090004DE4F07F08120E8A900043EFF0900043E0FFEF70DDDD
:401100001216577E00EF20E2F7121863900043EFF07F011216C6900043E0FFEF30E70B7BFF7A19797C1214AC80147BFF7A1979881214AC900046E0FEA3E0FF1217F47FD070
:401140007E077D007C001212D902109E22900084E004F0E0B40800501F901160F828287302117D02118F02119602119D0211AA0211B70211BE0211C5E4900084F090511DD2
:40118000E4F0905B007470F090510D7401F02290510D7402F02290510D7404F02290510D7408F0905B0074F0F022905B007470F090510D7410F02290510D7420F0229051C6
:4011C0000D7440F02290510DE4F090511D7410F0905B007471F022900048EFF0900049ECF0A3EDF0900048E0FFEFD3941F5003D38001C340057F00121920900048E0FFEFCF
:40120000541FFF7E00EF25E0FFEE33FEEF2400FFEE3444FEAA06A9077B0112198D90004BEEF0A3EFF0900048E0FF7E02EF8EF0A4FFAEF0EF2400FFEE3444FEAA06A9077B31
:4012400001900049E0FEA3E0FFAD07AC0612199C90004BE0FEA3E0FF22904E14E0FFEF5403FF90004AEFF090004AE0FFEFD394015032904E11E0FF7E00900048EEF0A3EFB5
:40128000F0900048E0FEA3E0FFEF7F00FE904E10E0FD7C00EE4CFEEF4DFF900048EEF0A3EFF0801F7B027A4E791012198D900048EEF0A3EFF090004AE0FFEFB40305904E09
:4012C00012E0FF900060E0FFEF6005900055E4F0900048E0FEA3E0FF2290FFFC1205591205158508838509821204FDD3EF9400EE9480402F9000701204FD1217008508835A
:40130000850982C083C0821204FDEF2400FFEE3480FEED34FFFDEC34FFFCD082D08312051580BF9000661204FD85088385098212050912035412170090000412055922907A
:401340000048EFF0900049EDF0900049E0FFEFD394075003D38001C340057F00121920900048E0FFEFD3941F5003D38001C340057F00121920900049E0FFEF5407FF7E00DE
:40138000EF75F020A4FFAEF0900048E0FEEE541FFE74802EF582E43444F583EFF022410055004100600041005B004100610041005A01410095004100910041009200410028
:4013C00096004100940044006B016E360044006600005DC041006A184400702EE00000410084FF410085FF460086008102080F0043008C000000410097000090004FEFF08E
:40140000905120E0FFEF4420FFEFF0905120E0FFEF54BFFFEFF07F007E00121770905120E0FFEF54F0FFEFF0905120C083C082E0FF90004FE0FEEE4410FEEF4EFFD082D094
:4014400083EFF07F017E00121770905120E0FFEF54EFFFEFF022905828E0FFEF540CFF7E00EEC313FEEF13FF900048EFF0905829E0FFEF5404FF7E00EF64044E70069000CD
:4014800048E004F0900048E0FFE4FCFDFEEF2428FFEE3401FEED340CFDEC3400FCA907AA06AB051219CF90460AEFF02290004812052A90004B7401F0900048120521120275
:4014C000F8FF90004CEFF090004CE0FFEF602A90004CE0FF12169090004812052190004BE0FFE92FF9E43AFA1202F8FF90004CEFF090004BE004F080CE2290004AEFF09072
:401500005120E0FFEF549FFFEFF0905120E0FFEF54F0FFEFF0905120C083C082E0FF90004AE0FEEE4410FEEF4EFFD082D083EFF07F017E00121770905120E0FFEF54EFFFE5
:40154000EFF0229049D67402F09049C87481F09049CA7408F09049DB740FF09049DCE4F09044C97480F07D077F0F12133F7C057DEA7F0F1211D79000937410F0900079E425
:40158000F0900074E4F0900075E4F0227B0C7A0179CF1219CF900043EFF0900043E0FFEF5407FF90586EEFF0900043E0FFEFC4540FFFEF540FFF90586FEFF0905A93748083
:4015C000F0905B007470F0905B587401F09058767444F022C2D5E830E70FB2D5E4C39BFBE49AFAE499F9E498F8EC30E717B2D512160A1203DFE4C39BFBE49AFAE499F9E4CB
:4016000098F880031203DF30D50DE4C39FFFE49EFEE49DFDE49CFC22900048EFF0900060E0FFEF600C900055E0FF900049EFF0800E904E01E0FFEF5401FF900049EFF0907C
:401640000049E0FFEF64016008900048E0FFEF60CC900049E0FF229044C97480F0900079E0FF900048EFF0900093E0FFEF5440FF7E00EF4E600E900048E0FFEF4404FF9090
:401680000048EFF09044C17480F0900048E0FF2290004DEFF012096990004DE0FFEFC4540FFF90004EEFF090004EE0FF1213FB90004DE0FFEF540FFF90004EEFF090004E5E
:4016C000E0FF1213FB22900048EFF0120969900048E0FFEFC4540FFF900049EFF0900049E0FF1214FA900048E0FFEF540FFF900049EFF0900049E0FF1214FA2232323232B0
:40170000EC4D4E700D78FCEF24E950032840FD2200007BF178DA0000EF28FF78FFEE38FEED38FDEC38FC50E7EF2BFFEE38FEED38FDEC38FC40F22205020304758600EF4E5A
:401740006027EF60010E75930090004DE0F595A3E0F585A3E0F5848B938A838982E0A30586F0A31586DFF6DEF4E4F593F5952200EEFA90006AE0F88FF0A4FFAEF0E88AF02F
:40178000A42EFEE5F03400FDEF24C9FF78FFEE38FEED38FDE438FC500302170022900048EFF0905828E0FFEF54FDFFEFF0905828C083C082E0FF900048E0FEEE5402FEEFF6
:4017C0004EFFD082D083EFF02290004AEFF090004AE0FFEFC4540FFFEF901BAC93FF1219A990004AE0FFEF540FFFEF901BAC93FF1219A922900048EEF0A3EFF0900048E0FB
:40180000FEA3E0FFEEFF7E001217C9900048E0FEA3E0FFEF54FFFF1217C922121935900048EFF09043A5E0FFEF4404FFEFF09043B5E0FFEF4404FFEFF0900048E0FF12185E
:40184000DA229058287410F0905829E4F0905829E0FFEF4400FFEFF07F007E0012179D121456229044C97480F0900079E0FF900048EFF0900079E4F09044C17480F090009B
:4018800048E0FF22900085E004F0E0600B24F850138000E4900085F090512D7480F0905B047408F022900094E0FFEF70091215439000947401F012181B9044C17480F02216
:4018C000900096E0FFEF70091218429000967401F01218F27F5012195C22EF54016004D2AF8002C2AFEF5402FF9044F4E054FD4FF0229043A8E0FFEF4404FFEFF09043B83C
:40190000E0FFEF4404FFEFF02290008474FFF090510DE4F0905B007470F090511DE4F02290FFFF120559EFF09046EA7401F0900001120559229044F4E0F84402F0E854026C
:40194000FF10AF012274014FFF22900048EFF0900048E0FF900048EFF080FE22900048EFF0900048E0FF905B82EFF02290008574FFF090512DE4F0905B04F02249324320C7
:401980004572726F722120003078008B938A838982E0FFA3E0FE759300228B938A838982EDF0A3ECF07593002290004BEFF090004BE0FF12169022904E00E0FFEF4401FF7A
:4019C000EFF022904E00E0FFEF54FEFFEFF0228B938A838982E0759300FF228B938A838982EDF0759300221219F89000957401F02212114D1218842212190912196C22016F
:401A00000000000000000001000000000001000100000008000000010000000800010001000000010008230219FF7608000823031A077610000823041A0F762800082305D1
:401A40001A177630000523061A1F7020000523071A1F7030000523081A1F7060000523FE1A1F70700015220A008049C80040220B00805130001022FE008051F00980220D2F
:401A8000008000000080220E00800A000480220F00800B800180221000801400018022110080160001802212008018000180221300801A00020022140080400000802215CF
:401AC00000804300008022160080450000802217008047000080221800804D00002022FE00805000000623FE000052600008231B000851000080231C00100A800080231DFE
:401B000000904D800080231E01104C000080231F01904C80008023200210478000802321029046000080232203104680008023230390458000802324041044000080232530
:401B4000049044800080232605101B800080232705901580008023280610198000802329069017800080232A071009800080232B07900B000080232C081049000080232D50
:401B8000089049800080232E091048000080232F09904880008023300A104380008023310A904200008023FE0B1042803031323334353637383941424344454600000000DF
:401BC00000000000000000000000000000000000000000000000000000000000000000000000000000000000000000000000000000000000000000000000000000000000E5
:401C000000000000000000000000000000000000000000000000000000000000000000000000000000000000000000000000000000000000000000000000000000000000A4
:401C40000000000000000000000000000000000000000000000000000000000000000000000000000000000000000000000000000000000000000000000000000000000064
:401C80000000000000000000000000000000000000000000000000000000000000000000000000000000000000000000000000000000000000000000000000000000000024
:0200000480007A
:400000000200000003000000000000C000000000000000000000000000000000000000000000000000000000000000000000000000000000000000000000000000000000FB
:400040000000000000000000020000000000010000000000000000000000000000000000000000000000000004000000000000010000000000000000000000000000000078
:400080000000000000000000000000000000000000000010000000400000000000000000000000000000008000000000000000000000000000000010000000280000000038
:4000C00000000000000800000000000000000000000000000000000000000000000000000000000000000000000000000000000000000000000000000000000008000000F0
:400100000000000000000000000000000000000000000000000000000000000000000000800000200000000800000000000000000000000000000000000000000000000017
:40014000000000000000000000000000000000000000000000000000000000000000000000000000000000000000000000000000000000000000000000000000000000007F
:400180000000000000000000000000100000004080000000000000000000000000000000000000000000000000000000000000000000000000080000000000000000000067
:4001C00000000000000000000000000000000000000000000E00000000000000000000000000000000000000000000000000030000000000000000000000000000000000EE
:4002000000000000000000000000000000000000000000000000000000000000000000000000000000000000000000000000000000000000000800000000000000000000B6
:400240000000000001000000000000000000000000000000000000000000000000000000000000000000000000000000000000000000000000000000000000000800000075
:40028000000000000000000000000000000000000000000000000000000000000000000000000000000000000000000000000000000000000000000000000000000000003E
:4002C00000000000000000000000000000000000000000000008000000000000000000000000000000000000000000000000000000000000000000000000000000000000F6
:4003000000000000000000000000000000000000000000000000000000000000000000000000000001000000000000000000000000000000000000000000000000000000BC
:40034000000000000000000000000000000000000000000000000000000000000000000001000000000000000000000000000000000000000000000000000000000000007C
:40038000000000000000000000000000000000000000000000000000000000000000000000000000010000000000000000000000000000000000000000000000000000003C
:4003C00000000000000000000000000000000000000000000000000000000000000000000000000000000000000000000000000000000000000000000000000000000000FD
:4004000000000000000000000000000000000000000000000000000000000000000000000000000000000000000000000000000000000000000000000000000000000000BC
:40044000000000000000000000000000000000000000000000000000000000000000000000000000000000000000000000000000000000000000000000000000000000007C
:40048000000000000000000000000000010000000000000000000000000000000000000000000000000000000000000000000000000000000000000000000000000000003B
:4004C00000000000000000000000000000000000000000000000000000000000000000000000000000000000000000000000010000000000000000000000000000000000FB
:4005000000000000000000000000000000000000000000000000000000000000000000000000000000000000000000000000000000000000000000000000000000000000BB
:40054000000000000000000000000000000000000000000000000000000000000000000000000000000000000000000000000000080000000100000000000500100000005D
:40058000000000000000000000000000000000000000000000000000000000000000000000000000000000000000000000000000000000000000000000000000000000003B
:4005C00000000000000000000000000000000000000000000000000000000000000000000000000000000000000000000000000008000000010000000000050010000000DD
:4006000000000000000000000000000000000000000000000000000000000000000000000000000000000000000000000000000000000000000000000000000000000000BA
:400640000000000000000000000000000000000000000000000000000000000000000000000000000000000000000000000000000000040000000000000000000000000076
:40068000000000000000000000000000000000000000000000000000000000000000000000000000000000000000000000000000000000000000000000000000000000003A
:4006C00000000000000000000000000000000000000000000000000000000000000000000000000000000000000000000000000000000400000000000000000000000000F6
:4007000000000000000000000000000000000000000000000000000000000000000000000000000000000000000000000000000000000000000000000000000000000000B9
:400740000000000000020000000000000000000000000000000000000000000000000000000000000000000000000000000000000000000000000000000000000000000077
:400780000000000000000000000000000000000000000000000000000000000000000000000000000000000000000000000200000000000000000000000000000000000037
:4007C00000000000000000000000000000000000000000000000000000000000000000000000000000000000000000000000000000000000000000000000000000000000F9
:400800000000000000000000000000000000000000000000000000000000000000000000000020000000400000000000000000000000000000000000000000000000000058
:400840000000000000000000000000000000000000000000000000000000000000000000000000000000000000000000000000000000000000000000000000000000000078
:400880000000200000000010000000000000000000002000000040000000000000000000000000000000000000002010000000000000000000000000000010100000000058
:4008C00000000000001000000000000000000000000000003000000000000000000000000000000000000000000000008000200010000000800000000000A00000000000E8
:4009000000000000000000000000000000000000000000000000000000000000000000000000000000000000000000000000000000000000001000000000000000000000A7
:400940000000000000000000000000000000000000000000000000000000000000000000000000000000000000000000000000000000000000000000000000000000000077
:400980000000000000000000000000000000000000002000000000000000000000000000000000000000100000000000000000000000000000000000000000000000000007
:4009C00000000000000000000000000000000000000000000000000020000000000000000000000000000000000000000000000000002000000000000000000000000000B7
:400A000000000000000000000000000000000000000000000000000000000000000000000000000000001000000000000000000000000000000000000000000000000000A6
:400A40000000000000000000000000000000000000000000000000000000000000000000000000000000000000000000000000000000000000000000000000000000000076
:400A80000000000000000000000000000000000000000000000000000000000000000000000000000000000000000000000000000000000000000000000000000000000036
:400AC00000000000000000000000000000001000000000000000000000000000000000000000000000000000000000000000000000000000000000000000000000000000E6
:400B000000000000000000000000000000000000000000000000000000000000000000000000000000000000000000000000000000000000000000000000000000000000B5
:400B40000000000000000000000000000000000000000000000000000000000000002000000000000000000000000000000000000000000000000000000000000000000055
:400B800000000000000000000000000000000000000000000000FF0000000300030000000000000000001000007F7F00000080001200180100000000000000000000000077
:400BC00000000000000000000000000000000000000000000000000000000000000000000000000000000000000000000000000000000000000000000000000000000000F5
:400C000000000000000000000000000000000000000000000000000000000000000000000000000000000000000000000000000000000000000000000000000000000000B4
:400C40000000000000000000000000000000000000000000000000000000000000000000000000000000000000000000000000000000000000000000000000000000000074
:400C80000000000000000000000000000000000000000000000000000000000000000000000000000000000000000000000000000000000000000000000000000000000034
:0200000490006A
:0400000000004004B8
:0200000490105A
:04000000BC90ACAF55
:0200000490303A
:02000000C8C076
:0200000490501A
:0C00000000011E02806903011E10492946
:0200000490402A
:4000000000000000000000000000000000000000000000000000000000000000000000000000000000000000000000000000000000000000000000000000000000000000C0
:00000001FF
